{
  "_format": "hh-sol-artifact-1",
  "contractName": "RandomIpfsNft",
  "sourceName": "contracts/RandomIpfsNft.sol",
  "abi": [
    {
      "inputs": [
        {
          "internalType": "address",
          "name": "vrfCoordinatorV2",
          "type": "address"
        },
        {
          "internalType": "uint64",
          "name": "subscriptionId",
          "type": "uint64"
        },
        {
          "internalType": "bytes32",
          "name": "gasLane",
          "type": "bytes32"
        },
        {
          "internalType": "uint32",
          "name": "callbackGasLimit",
          "type": "uint32"
        },
        {
          "internalType": "string[20]",
          "name": "tokenUris",
          "type": "string[20]"
        },
        {
          "internalType": "uint256",
          "name": "mintFee",
          "type": "uint256"
        }
      ],
      "stateMutability": "nonpayable",
      "type": "constructor"
    },
    {
      "inputs": [
        {
          "internalType": "address",
          "name": "sender",
          "type": "address"
        },
        {
          "internalType": "uint256",
          "name": "tokenId",
          "type": "uint256"
        },
        {
          "internalType": "address",
          "name": "owner",
          "type": "address"
        }
      ],
      "name": "ERC721IncorrectOwner",
      "type": "error"
    },
    {
      "inputs": [
        {
          "internalType": "address",
          "name": "operator",
          "type": "address"
        },
        {
          "internalType": "uint256",
          "name": "tokenId",
          "type": "uint256"
        }
      ],
      "name": "ERC721InsufficientApproval",
      "type": "error"
    },
    {
      "inputs": [
        {
          "internalType": "address",
          "name": "approver",
          "type": "address"
        }
      ],
      "name": "ERC721InvalidApprover",
      "type": "error"
    },
    {
      "inputs": [
        {
          "internalType": "address",
          "name": "operator",
          "type": "address"
        }
      ],
      "name": "ERC721InvalidOperator",
      "type": "error"
    },
    {
      "inputs": [
        {
          "internalType": "address",
          "name": "owner",
          "type": "address"
        }
      ],
      "name": "ERC721InvalidOwner",
      "type": "error"
    },
    {
      "inputs": [
        {
          "internalType": "address",
          "name": "receiver",
          "type": "address"
        }
      ],
      "name": "ERC721InvalidReceiver",
      "type": "error"
    },
    {
      "inputs": [
        {
          "internalType": "address",
          "name": "sender",
          "type": "address"
        }
      ],
      "name": "ERC721InvalidSender",
      "type": "error"
    },
    {
      "inputs": [
        {
          "internalType": "uint256",
          "name": "tokenId",
          "type": "uint256"
        }
      ],
      "name": "ERC721NonexistentToken",
      "type": "error"
    },
    {
      "inputs": [
        {
          "internalType": "address",
          "name": "have",
          "type": "address"
        },
        {
          "internalType": "address",
          "name": "want",
          "type": "address"
        }
      ],
      "name": "OnlyCoordinatorCanFulfill",
      "type": "error"
    },
    {
      "inputs": [
        {
          "internalType": "address",
          "name": "owner",
          "type": "address"
        }
      ],
      "name": "OwnableInvalidOwner",
      "type": "error"
    },
    {
      "inputs": [
        {
          "internalType": "address",
          "name": "account",
          "type": "address"
        }
      ],
      "name": "OwnableUnauthorizedAccount",
      "type": "error"
    },
    {
      "inputs": [],
      "name": "RandomIpfsNft_InsufficientETHSent",
      "type": "error"
    },
    {
      "inputs": [],
      "name": "RandomIpfsNft_RangeOutOfBounds",
      "type": "error"
    },
    {
      "inputs": [],
      "name": "RandomIpfsNft_TransferFailed",
      "type": "error"
    },
    {
      "anonymous": false,
      "inputs": [
        {
          "indexed": true,
          "internalType": "address",
          "name": "owner",
          "type": "address"
        },
        {
          "indexed": true,
          "internalType": "address",
          "name": "approved",
          "type": "address"
        },
        {
          "indexed": true,
          "internalType": "uint256",
          "name": "tokenId",
          "type": "uint256"
        }
      ],
      "name": "Approval",
      "type": "event"
    },
    {
      "anonymous": false,
      "inputs": [
        {
          "indexed": true,
          "internalType": "address",
          "name": "owner",
          "type": "address"
        },
        {
          "indexed": true,
          "internalType": "address",
          "name": "operator",
          "type": "address"
        },
        {
          "indexed": false,
          "internalType": "bool",
          "name": "approved",
          "type": "bool"
        }
      ],
      "name": "ApprovalForAll",
      "type": "event"
    },
    {
      "anonymous": false,
      "inputs": [
        {
          "indexed": false,
          "internalType": "uint256",
          "name": "_fromTokenId",
          "type": "uint256"
        },
        {
          "indexed": false,
          "internalType": "uint256",
          "name": "_toTokenId",
          "type": "uint256"
        }
      ],
      "name": "BatchMetadataUpdate",
      "type": "event"
    },
    {
      "anonymous": false,
      "inputs": [
        {
          "indexed": false,
          "internalType": "uint256",
          "name": "_tokenId",
          "type": "uint256"
        }
      ],
      "name": "MetadataUpdate",
      "type": "event"
    },
    {
      "anonymous": false,
      "inputs": [
        {
          "indexed": false,
          "internalType": "uint256",
          "name": "newTokenID",
          "type": "uint256"
        },
        {
          "indexed": false,
          "internalType": "address",
          "name": "nftOwner",
          "type": "address"
        }
      ],
      "name": "NFTMinted",
      "type": "event"
    },
    {
      "anonymous": false,
      "inputs": [
        {
          "indexed": false,
          "internalType": "uint256",
          "name": "requestId",
          "type": "uint256"
        },
        {
          "indexed": false,
          "internalType": "address",
          "name": "senderAddress",
          "type": "address"
        }
      ],
      "name": "NftRequestedWithNewIdFromVRF",
      "type": "event"
    },
    {
      "anonymous": false,
      "inputs": [
        {
          "indexed": true,
          "internalType": "address",
          "name": "previousOwner",
          "type": "address"
        },
        {
          "indexed": true,
          "internalType": "address",
          "name": "newOwner",
          "type": "address"
        }
      ],
      "name": "OwnershipTransferred",
      "type": "event"
    },
    {
      "anonymous": false,
      "inputs": [
        {
          "indexed": true,
          "internalType": "address",
          "name": "from",
          "type": "address"
        },
        {
          "indexed": true,
          "internalType": "address",
          "name": "to",
          "type": "address"
        },
        {
          "indexed": true,
          "internalType": "uint256",
          "name": "tokenId",
          "type": "uint256"
        }
      ],
      "name": "Transfer",
      "type": "event"
    },
    {
      "inputs": [
        {
          "internalType": "address",
          "name": "to",
          "type": "address"
        },
        {
          "internalType": "uint256",
          "name": "tokenId",
          "type": "uint256"
        }
      ],
      "name": "approve",
      "outputs": [],
      "stateMutability": "nonpayable",
      "type": "function"
    },
    {
      "inputs": [
        {
          "internalType": "address",
          "name": "owner",
          "type": "address"
        }
      ],
      "name": "balanceOf",
      "outputs": [
        {
          "internalType": "uint256",
          "name": "",
          "type": "uint256"
        }
      ],
      "stateMutability": "view",
      "type": "function"
    },
    {
      "inputs": [
        {
          "internalType": "uint256",
          "name": "tokenId",
          "type": "uint256"
        }
      ],
      "name": "getApproved",
      "outputs": [
        {
          "internalType": "address",
          "name": "",
          "type": "address"
        }
      ],
      "stateMutability": "view",
      "type": "function"
    },
    {
      "inputs": [],
      "name": "getMintFee",
      "outputs": [
        {
          "internalType": "uint256",
          "name": "mintFee",
          "type": "uint256"
        }
      ],
      "stateMutability": "view",
      "type": "function"
    },
    {
      "inputs": [
        {
          "internalType": "uint256",
          "name": "index",
          "type": "uint256"
        }
      ],
      "name": "getNftTypesUris",
      "outputs": [
        {
          "internalType": "string",
          "name": "uris",
          "type": "string"
        }
      ],
      "stateMutability": "view",
      "type": "function"
    },
    {
      "inputs": [],
      "name": "getTokenCounter",
      "outputs": [
        {
          "internalType": "uint256",
          "name": "tokenCount",
          "type": "uint256"
        }
      ],
      "stateMutability": "view",
      "type": "function"
    },
    {
      "inputs": [
        {
          "internalType": "address",
          "name": "owner",
          "type": "address"
        },
        {
          "internalType": "address",
          "name": "operator",
          "type": "address"
        }
      ],
      "name": "isApprovedForAll",
      "outputs": [
        {
          "internalType": "bool",
          "name": "",
          "type": "bool"
        }
      ],
      "stateMutability": "view",
      "type": "function"
    },
    {
      "inputs": [],
      "name": "name",
      "outputs": [
        {
          "internalType": "string",
          "name": "",
          "type": "string"
        }
      ],
      "stateMutability": "view",
      "type": "function"
    },
    {
      "inputs": [],
      "name": "owner",
      "outputs": [
        {
          "internalType": "address",
          "name": "",
          "type": "address"
        }
      ],
      "stateMutability": "view",
      "type": "function"
    },
    {
      "inputs": [
        {
          "internalType": "uint256",
          "name": "tokenId",
          "type": "uint256"
        }
      ],
      "name": "ownerOf",
      "outputs": [
        {
          "internalType": "address",
          "name": "",
          "type": "address"
        }
      ],
      "stateMutability": "view",
      "type": "function"
    },
    {
      "inputs": [
        {
          "internalType": "uint256",
          "name": "requestId",
          "type": "uint256"
        },
        {
          "internalType": "uint256[]",
          "name": "randomWords",
          "type": "uint256[]"
        }
      ],
      "name": "rawFulfillRandomWords",
      "outputs": [],
      "stateMutability": "nonpayable",
      "type": "function"
    },
    {
      "inputs": [],
      "name": "renounceOwnership",
      "outputs": [],
      "stateMutability": "nonpayable",
      "type": "function"
    },
    {
      "inputs": [],
      "name": "requestNft",
      "outputs": [
        {
          "internalType": "uint256",
          "name": "requestId",
          "type": "uint256"
        }
      ],
      "stateMutability": "payable",
      "type": "function"
    },
    {
      "inputs": [
        {
          "internalType": "uint256",
          "name": "",
          "type": "uint256"
        }
      ],
      "name": "s_requestIdToSender",
      "outputs": [
        {
          "internalType": "address",
          "name": "",
          "type": "address"
        }
      ],
      "stateMutability": "view",
      "type": "function"
    },
    {
      "inputs": [],
      "name": "s_tokenCounter",
      "outputs": [
        {
          "internalType": "uint256",
          "name": "",
          "type": "uint256"
        }
      ],
      "stateMutability": "view",
      "type": "function"
    },
    {
      "inputs": [
        {
          "internalType": "address",
          "name": "from",
          "type": "address"
        },
        {
          "internalType": "address",
          "name": "to",
          "type": "address"
        },
        {
          "internalType": "uint256",
          "name": "tokenId",
          "type": "uint256"
        }
      ],
      "name": "safeTransferFrom",
      "outputs": [],
      "stateMutability": "nonpayable",
      "type": "function"
    },
    {
      "inputs": [
        {
          "internalType": "address",
          "name": "from",
          "type": "address"
        },
        {
          "internalType": "address",
          "name": "to",
          "type": "address"
        },
        {
          "internalType": "uint256",
          "name": "tokenId",
          "type": "uint256"
        },
        {
          "internalType": "bytes",
          "name": "data",
          "type": "bytes"
        }
      ],
      "name": "safeTransferFrom",
      "outputs": [],
      "stateMutability": "nonpayable",
      "type": "function"
    },
    {
      "inputs": [
        {
          "internalType": "address",
          "name": "operator",
          "type": "address"
        },
        {
          "internalType": "bool",
          "name": "approved",
          "type": "bool"
        }
      ],
      "name": "setApprovalForAll",
      "outputs": [],
      "stateMutability": "nonpayable",
      "type": "function"
    },
    {
      "inputs": [
        {
          "internalType": "bytes4",
          "name": "interfaceId",
          "type": "bytes4"
        }
      ],
      "name": "supportsInterface",
      "outputs": [
        {
          "internalType": "bool",
          "name": "",
          "type": "bool"
        }
      ],
      "stateMutability": "view",
      "type": "function"
    },
    {
      "inputs": [],
      "name": "symbol",
      "outputs": [
        {
          "internalType": "string",
          "name": "",
          "type": "string"
        }
      ],
      "stateMutability": "view",
      "type": "function"
    },
    {
      "inputs": [
        {
          "internalType": "uint256",
          "name": "tokenId",
          "type": "uint256"
        }
      ],
      "name": "tokenURI",
      "outputs": [
        {
          "internalType": "string",
          "name": "",
          "type": "string"
        }
      ],
      "stateMutability": "view",
      "type": "function"
    },
    {
      "inputs": [
        {
          "internalType": "address",
          "name": "from",
          "type": "address"
        },
        {
          "internalType": "address",
          "name": "to",
          "type": "address"
        },
        {
          "internalType": "uint256",
          "name": "tokenId",
          "type": "uint256"
        }
      ],
      "name": "transferFrom",
      "outputs": [],
      "stateMutability": "nonpayable",
      "type": "function"
    },
    {
      "inputs": [
        {
          "internalType": "address",
          "name": "newOwner",
          "type": "address"
        }
      ],
      "name": "transferOwnership",
      "outputs": [],
      "stateMutability": "nonpayable",
      "type": "function"
    },
    {
      "inputs": [],
      "name": "withdraw",
      "outputs": [],
      "stateMutability": "nonpayable",
      "type": "function"
    }
  ],
  "bytecode": "0x6101206040523480156200001257600080fd5b5060405162003c5038038062003c508339818101604052810190620000389190620007a0565b336040518060400160405280601381526020017f52616e646f6d204f6e20436861696e204e4654000000000000000000000000008152506040518060400160405280600281526020017f5252000000000000000000000000000000000000000000000000000000000000815250888073ffffffffffffffffffffffffffffffffffffffff1660808173ffffffffffffffffffffffffffffffffffffffff1681525050508160009081620000ec919062000a9c565b508060019081620000fe919062000a9c565b505050600073ffffffffffffffffffffffffffffffffffffffff168173ffffffffffffffffffffffffffffffffffffffff1603620001765760006040517f1e4fbdf70000000000000000000000000000000000000000000000000000000081526004016200016d919062000b94565b60405180910390fd5b62000187816200021c60201b60201c565b508573ffffffffffffffffffffffffffffffffffffffff1660a08173ffffffffffffffffffffffffffffffffffffffff16815250508360e081815250508467ffffffffffffffff1660c08167ffffffffffffffff16815250508263ffffffff166101008163ffffffff168152505081600a90601462000208929190620002e2565b5080601e8190555050505050505062000bb1565b6000600760009054906101000a900473ffffffffffffffffffffffffffffffffffffffff16905081600760006101000a81548173ffffffffffffffffffffffffffffffffffffffff021916908373ffffffffffffffffffffffffffffffffffffffff1602179055508173ffffffffffffffffffffffffffffffffffffffff168173ffffffffffffffffffffffffffffffffffffffff167f8be0079c531659141344cd1fd0a4f28419497f9722a3daafe3b4186f6b6457e060405160405180910390a35050565b826014810192821562000322579160200282015b828111156200032157825182908162000310919062000a9c565b5091602001919060010190620002f6565b5b50905062000331919062000335565b5090565b5b808211156200035957600081816200034f91906200035d565b5060010162000336565b5090565b5080546200036b9062000895565b6000825580601f106200037f5750620003a0565b601f0160209004906000526020600020908101906200039f9190620003a3565b5b50565b5b80821115620003be576000816000905550600101620003a4565b5090565b6000604051905090565b600080fd5b600080fd5b600073ffffffffffffffffffffffffffffffffffffffff82169050919050565b60006200040382620003d6565b9050919050565b6200041581620003f6565b81146200042157600080fd5b50565b60008151905062000435816200040a565b92915050565b600067ffffffffffffffff82169050919050565b6200045a816200043b565b81146200046657600080fd5b50565b6000815190506200047a816200044f565b92915050565b6000819050919050565b620004958162000480565b8114620004a157600080fd5b50565b600081519050620004b5816200048a565b92915050565b600063ffffffff82169050919050565b620004d681620004bb565b8114620004e257600080fd5b50565b600081519050620004f681620004cb565b92915050565b600080fd5b6000601f19601f8301169050919050565b7f4e487b7100000000000000000000000000000000000000000000000000000000600052604160045260246000fd5b6200054c8262000501565b810181811067ffffffffffffffff821117156200056e576200056d62000512565b5b80604052505050565b600062000583620003c2565b905062000591828262000541565b919050565b600067ffffffffffffffff821115620005b457620005b362000512565b5b602082029050919050565b600080fd5b600080fd5b600067ffffffffffffffff821115620005e757620005e662000512565b5b620005f28262000501565b9050602081019050919050565b60005b838110156200061f57808201518184015260208101905062000602565b60008484015250505050565b6000620006426200063c84620005c9565b62000577565b905082815260208101848484011115620006615762000660620005c4565b5b6200066e848285620005ff565b509392505050565b600082601f8301126200068e576200068d620004fc565b5b8151620006a08482602086016200062b565b91505092915050565b6000620006c0620006ba8462000596565b62000577565b90508060208402830185811115620006dd57620006dc620005bf565b5b835b818110156200072b57805167ffffffffffffffff811115620007065762000705620004fc565b5b80860162000715898262000676565b85526020850194505050602081019050620006df565b5050509392505050565b600082601f8301126200074d576200074c620004fc565b5b60146200075c848285620006a9565b91505092915050565b6000819050919050565b6200077a8162000765565b81146200078657600080fd5b50565b6000815190506200079a816200076f565b92915050565b60008060008060008060c08789031215620007c057620007bf620003cc565b5b6000620007d089828a0162000424565b9650506020620007e389828a0162000469565b9550506040620007f689828a01620004a4565b94505060606200080989828a01620004e5565b935050608087015167ffffffffffffffff8111156200082d576200082c620003d1565b5b6200083b89828a0162000735565b92505060a06200084e89828a0162000789565b9150509295509295509295565b600081519050919050565b7f4e487b7100000000000000000000000000000000000000000000000000000000600052602260045260246000fd5b60006002820490506001821680620008ae57607f821691505b602082108103620008c457620008c362000866565b5b50919050565b60008190508160005260206000209050919050565b60006020601f8301049050919050565b600082821b905092915050565b6000600883026200092e7fffffffffffffffffffffffffffffffffffffffffffffffffffffffffffffffff82620008ef565b6200093a8683620008ef565b95508019841693508086168417925050509392505050565b6000819050919050565b60006200097d62000977620009718462000765565b62000952565b62000765565b9050919050565b6000819050919050565b62000999836200095c565b620009b1620009a88262000984565b848454620008fc565b825550505050565b600090565b620009c8620009b9565b620009d58184846200098e565b505050565b5b81811015620009fd57620009f1600082620009be565b600181019050620009db565b5050565b601f82111562000a4c5762000a1681620008ca565b62000a2184620008df565b8101602085101562000a31578190505b62000a4962000a4085620008df565b830182620009da565b50505b505050565b600082821c905092915050565b600062000a716000198460080262000a51565b1980831691505092915050565b600062000a8c838362000a5e565b9150826002028217905092915050565b62000aa7826200085b565b67ffffffffffffffff81111562000ac35762000ac262000512565b5b62000acf825462000895565b62000adc82828562000a01565b600060209050601f83116001811462000b14576000841562000aff578287015190505b62000b0b858262000a7e565b86555062000b7b565b601f19841662000b2486620008ca565b60005b8281101562000b4e5784890151825560018201915060208501945060208101905062000b27565b8683101562000b6e578489015162000b6a601f89168262000a5e565b8355505b6001600288020188555050505b505050505050565b62000b8e81620003f6565b82525050565b600060208201905062000bab600083018462000b83565b92915050565b60805160a05160c05160e0516101005161305362000bfd6000396000610cc601526000610c8201526000610ca301526000610c460152600081816106d2015261072601526130536000f3fe60806040526004361061014b5760003560e01c806370a08231116100b6578063a36f573b1161006f578063a36f573b1461047e578063aa152491146104bb578063b88d4fde146104d9578063c87b56dd14610502578063e985e9c51461053f578063f2fde38b1461057c5761014b565b806370a0823114610380578063715018a6146103bd5780637a5caab3146103d45780638da5cb5b146103ff57806395d89b411461042a578063a22cb465146104555761014b565b806323b872dd1161010857806323b872dd146102725780633ccfd60b1461029b57806342842e0e146102b257806353db6306146102db5780636352211e146103185780636e02007d146103555761014b565b806301ffc9a71461015057806306fdde031461018d578063081812fc146101b8578063095ea7b3146101f55780630b21a83b1461021e5780631fe543e314610249575b600080fd5b34801561015c57600080fd5b506101776004803603810190610172919061227f565b6105a5565b60405161018491906122c7565b60405180910390f35b34801561019957600080fd5b506101a2610606565b6040516101af9190612372565b60405180910390f35b3480156101c457600080fd5b506101df60048036038101906101da91906123ca565b610698565b6040516101ec9190612438565b60405180910390f35b34801561020157600080fd5b5061021c6004803603810190610217919061247f565b6106b4565b005b34801561022a57600080fd5b506102336106ca565b60405161024091906124ce565b60405180910390f35b34801561025557600080fd5b50610270600480360381019061026b9190612631565b6106d0565b005b34801561027e57600080fd5b506102996004803603810190610294919061268d565b610790565b005b3480156102a757600080fd5b506102b0610892565b005b3480156102be57600080fd5b506102d960048036038101906102d4919061268d565b610946565b005b3480156102e757600080fd5b5061030260048036038101906102fd91906123ca565b610966565b60405161030f9190612372565b60405180910390f35b34801561032457600080fd5b5061033f600480360381019061033a91906123ca565b610a0d565b60405161034c9190612438565b60405180910390f35b34801561036157600080fd5b5061036a610a1f565b60405161037791906124ce565b60405180910390f35b34801561038c57600080fd5b506103a760048036038101906103a291906126e0565b610a29565b6040516103b491906124ce565b60405180910390f35b3480156103c957600080fd5b506103d2610ae3565b005b3480156103e057600080fd5b506103e9610af7565b6040516103f691906124ce565b60405180910390f35b34801561040b57600080fd5b50610414610b01565b6040516104219190612438565b60405180910390f35b34801561043657600080fd5b5061043f610b2b565b60405161044c9190612372565b60405180910390f35b34801561046157600080fd5b5061047c60048036038101906104779190612739565b610bbd565b005b34801561048a57600080fd5b506104a560048036038101906104a091906123ca565b610bd3565b6040516104b29190612438565b60405180910390f35b6104c3610c06565b6040516104d091906124ce565b60405180910390f35b3480156104e557600080fd5b5061050060048036038101906104fb919061282e565b610dda565b005b34801561050e57600080fd5b50610529600480360381019061052491906123ca565b610df7565b6040516105369190612372565b60405180910390f35b34801561054b57600080fd5b50610566600480360381019061056191906128b1565b610f0a565b60405161057391906122c7565b60405180910390f35b34801561058857600080fd5b506105a3600480360381019061059e91906126e0565b610f9e565b005b6000634906490660e01b7bffffffffffffffffffffffffffffffffffffffffffffffffffffffff1916827bffffffffffffffffffffffffffffffffffffffffffffffffffffffff191614806105ff57506105fe82611024565b5b9050919050565b60606000805461061590612920565b80601f016020809104026020016040519081016040528092919081815260200182805461064190612920565b801561068e5780601f106106635761010080835404028352916020019161068e565b820191906000526020600020905b81548152906001019060200180831161067157829003601f168201915b5050505050905090565b60006106a382611106565b506106ad8261118e565b9050919050565b6106c682826106c16111cb565b6111d3565b5050565b60095481565b7f000000000000000000000000000000000000000000000000000000000000000073ffffffffffffffffffffffffffffffffffffffff163373ffffffffffffffffffffffffffffffffffffffff161461078257337f00000000000000000000000000000000000000000000000000000000000000006040517f1cf993f4000000000000000000000000000000000000000000000000000000008152600401610779929190612951565b60405180910390fd5b61078c82826111e5565b5050565b600073ffffffffffffffffffffffffffffffffffffffff168273ffffffffffffffffffffffffffffffffffffffff16036108025760006040517f64a0ae920000000000000000000000000000000000000000000000000000000081526004016107f99190612438565b60405180910390fd5b600061081683836108116111cb565b611365565b90508373ffffffffffffffffffffffffffffffffffffffff168173ffffffffffffffffffffffffffffffffffffffff161461088c578382826040517f64283d7b0000000000000000000000000000000000000000000000000000000081526004016108839392919061297a565b60405180910390fd5b50505050565b61089a61157f565b600047905060003373ffffffffffffffffffffffffffffffffffffffff16826040516108c5906129e2565b60006040518083038185875af1925050503d8060008114610902576040519150601f19603f3d011682016040523d82523d6000602084013e610907565b606091505b5050905080610942576040517f5586f5d000000000000000000000000000000000000000000000000000000000815260040160405180910390fd5b5050565b61096183838360405180602001604052806000815250610dda565b505050565b6060600a826014811061097c5761097b6129f7565b5b01805461098890612920565b80601f01602080910402602001604051908101604052809291908181526020018280546109b490612920565b8015610a015780601f106109d657610100808354040283529160200191610a01565b820191906000526020600020905b8154815290600101906020018083116109e457829003601f168201915b50505050509050919050565b6000610a1882611106565b9050919050565b6000600954905090565b60008073ffffffffffffffffffffffffffffffffffffffff168273ffffffffffffffffffffffffffffffffffffffff1603610a9c5760006040517f89c62b64000000000000000000000000000000000000000000000000000000008152600401610a939190612438565b60405180910390fd5b600360008373ffffffffffffffffffffffffffffffffffffffff1673ffffffffffffffffffffffffffffffffffffffff168152602001908152602001600020549050919050565b610aeb61157f565b610af56000611606565b565b6000601e54905090565b6000600760009054906101000a900473ffffffffffffffffffffffffffffffffffffffff16905090565b606060018054610b3a90612920565b80601f0160208091040260200160405190810160405280929190818152602001828054610b6690612920565b8015610bb35780601f10610b8857610100808354040283529160200191610bb3565b820191906000526020600020905b815481529060010190602001808311610b9657829003601f168201915b5050505050905090565b610bcf610bc86111cb565b83836116cc565b5050565b60086020528060005260406000206000915054906101000a900473ffffffffffffffffffffffffffffffffffffffff1681565b6000601e54341015610c44576040517f16695b7a00000000000000000000000000000000000000000000000000000000815260040160405180910390fd5b7f000000000000000000000000000000000000000000000000000000000000000073ffffffffffffffffffffffffffffffffffffffff16635d3b1d307f00000000000000000000000000000000000000000000000000000000000000007f000000000000000000000000000000000000000000000000000000000000000060037f000000000000000000000000000000000000000000000000000000000000000060016040518663ffffffff1660e01b8152600401610d07959493929190612a9e565b6020604051808303816000875af1158015610d26573d6000803e3d6000fd5b505050506040513d601f19601f82011682018060405250810190610d4a9190612b06565b9050336008600083815260200190815260200160002060006101000a81548173ffffffffffffffffffffffffffffffffffffffff021916908373ffffffffffffffffffffffffffffffffffffffff1602179055507f49caccda39051708846e02716d008c87187c3aa300b6096dc6a138afb65e79a88133604051610dcf929190612b33565b60405180910390a190565b610de5848484610790565b610df18484848461183b565b50505050565b6060610e0282611106565b506000600660008481526020019081526020016000208054610e2390612920565b80601f0160208091040260200160405190810160405280929190818152602001828054610e4f90612920565b8015610e9c5780601f10610e7157610100808354040283529160200191610e9c565b820191906000526020600020905b815481529060010190602001808311610e7f57829003601f168201915b505050505090506000610ead6119f2565b90506000815103610ec2578192505050610f05565b600082511115610ef7578082604051602001610edf929190612b98565b60405160208183030381529060405292505050610f05565b610f0084611a09565b925050505b919050565b6000600560008473ffffffffffffffffffffffffffffffffffffffff1673ffffffffffffffffffffffffffffffffffffffff16815260200190815260200160002060008373ffffffffffffffffffffffffffffffffffffffff1673ffffffffffffffffffffffffffffffffffffffff16815260200190815260200160002060009054906101000a900460ff16905092915050565b610fa661157f565b600073ffffffffffffffffffffffffffffffffffffffff168173ffffffffffffffffffffffffffffffffffffffff16036110185760006040517f1e4fbdf700000000000000000000000000000000000000000000000000000000815260040161100f9190612438565b60405180910390fd5b61102181611606565b50565b60007f80ac58cd000000000000000000000000000000000000000000000000000000007bffffffffffffffffffffffffffffffffffffffffffffffffffffffff1916827bffffffffffffffffffffffffffffffffffffffffffffffffffffffff191614806110ef57507f5b5e139f000000000000000000000000000000000000000000000000000000007bffffffffffffffffffffffffffffffffffffffffffffffffffffffff1916827bffffffffffffffffffffffffffffffffffffffffffffffffffffffff1916145b806110ff57506110fe82611a72565b5b9050919050565b60008061111283611adc565b9050600073ffffffffffffffffffffffffffffffffffffffff168173ffffffffffffffffffffffffffffffffffffffff160361118557826040517f7e27328900000000000000000000000000000000000000000000000000000000815260040161117c91906124ce565b60405180910390fd5b80915050919050565b60006004600083815260200190815260200160002060009054906101000a900473ffffffffffffffffffffffffffffffffffffffff169050919050565b600033905090565b6111e08383836001611b19565b505050565b60006008600084815260200190815260200160002060009054906101000a900473ffffffffffffffffffffffffffffffffffffffff169050600060095490506000601463ffffffff1684600081518110611242576112416129f7565b5b60200260200101516112549190612beb565b90506000600a826014811061126c5761126b6129f7565b5b01805461127890612920565b80601f01602080910402602001604051908101604052809291908181526020018280546112a490612920565b80156112f15780601f106112c6576101008083540402835291602001916112f1565b820191906000526020600020905b8154815290600101906020018083116112d457829003601f168201915b505050505090506113028484611cde565b61130c8382611cfc565b7f0176f203df400d7bd5f1b1c9ef36c16709bf3b5d9fd35f000a6bae32393f66c3838560405161133d929190612b33565b60405180910390a16009600081548092919061135890612c4b565b9190505550505050505050565b60008061137184611adc565b9050600073ffffffffffffffffffffffffffffffffffffffff168373ffffffffffffffffffffffffffffffffffffffff16146113b3576113b2818486611d58565b5b600073ffffffffffffffffffffffffffffffffffffffff168173ffffffffffffffffffffffffffffffffffffffff1614611444576113f5600085600080611b19565b6001600360008373ffffffffffffffffffffffffffffffffffffffff1673ffffffffffffffffffffffffffffffffffffffff168152602001908152602001600020600082825403925050819055505b600073ffffffffffffffffffffffffffffffffffffffff168573ffffffffffffffffffffffffffffffffffffffff16146114c7576001600360008773ffffffffffffffffffffffffffffffffffffffff1673ffffffffffffffffffffffffffffffffffffffff168152602001908152602001600020600082825401925050819055505b846002600086815260200190815260200160002060006101000a81548173ffffffffffffffffffffffffffffffffffffffff021916908373ffffffffffffffffffffffffffffffffffffffff160217905550838573ffffffffffffffffffffffffffffffffffffffff168273ffffffffffffffffffffffffffffffffffffffff167fddf252ad1be2c89b69c2b068fc378daa952ba7f163c4a11628f55a4df523b3ef60405160405180910390a4809150509392505050565b6115876111cb565b73ffffffffffffffffffffffffffffffffffffffff166115a5610b01565b73ffffffffffffffffffffffffffffffffffffffff1614611604576115c86111cb565b6040517f118cdaa70000000000000000000000000000000000000000000000000000000081526004016115fb9190612438565b60405180910390fd5b565b6000600760009054906101000a900473ffffffffffffffffffffffffffffffffffffffff16905081600760006101000a81548173ffffffffffffffffffffffffffffffffffffffff021916908373ffffffffffffffffffffffffffffffffffffffff1602179055508173ffffffffffffffffffffffffffffffffffffffff168173ffffffffffffffffffffffffffffffffffffffff167f8be0079c531659141344cd1fd0a4f28419497f9722a3daafe3b4186f6b6457e060405160405180910390a35050565b600073ffffffffffffffffffffffffffffffffffffffff168273ffffffffffffffffffffffffffffffffffffffff160361173d57816040517f5b08ba180000000000000000000000000000000000000000000000000000000081526004016117349190612438565b60405180910390fd5b80600560008573ffffffffffffffffffffffffffffffffffffffff1673ffffffffffffffffffffffffffffffffffffffff16815260200190815260200160002060008473ffffffffffffffffffffffffffffffffffffffff1673ffffffffffffffffffffffffffffffffffffffff16815260200190815260200160002060006101000a81548160ff0219169083151502179055508173ffffffffffffffffffffffffffffffffffffffff168373ffffffffffffffffffffffffffffffffffffffff167f17307eab39ab6107e8899845ad3d59bd9653f200f220920489ca2b5937696c318360405161182e91906122c7565b60405180910390a3505050565b60008373ffffffffffffffffffffffffffffffffffffffff163b11156119ec578273ffffffffffffffffffffffffffffffffffffffff1663150b7a0261187f6111cb565b8685856040518563ffffffff1660e01b81526004016118a19493929190612ce8565b6020604051808303816000875af19250505080156118dd57506040513d601f19601f820116820180604052508101906118da9190612d49565b60015b611961573d806000811461190d576040519150601f19603f3d011682016040523d82523d6000602084013e611912565b606091505b50600081510361195957836040517f64a0ae920000000000000000000000000000000000000000000000000000000081526004016119509190612438565b60405180910390fd5b805181602001fd5b63150b7a0260e01b7bffffffffffffffffffffffffffffffffffffffffffffffffffffffff1916817bffffffffffffffffffffffffffffffffffffffffffffffffffffffff1916146119ea57836040517f64a0ae920000000000000000000000000000000000000000000000000000000081526004016119e19190612438565b60405180910390fd5b505b50505050565b606060405180602001604052806000815250905090565b6060611a1482611106565b506000611a1f6119f2565b90506000815111611a3f5760405180602001604052806000815250611a6a565b80611a4984611e1c565b604051602001611a5a929190612b98565b6040516020818303038152906040525b915050919050565b60007f01ffc9a7000000000000000000000000000000000000000000000000000000007bffffffffffffffffffffffffffffffffffffffffffffffffffffffff1916827bffffffffffffffffffffffffffffffffffffffffffffffffffffffff1916149050919050565b60006002600083815260200190815260200160002060009054906101000a900473ffffffffffffffffffffffffffffffffffffffff169050919050565b8080611b525750600073ffffffffffffffffffffffffffffffffffffffff168273ffffffffffffffffffffffffffffffffffffffff1614155b15611c86576000611b6284611106565b9050600073ffffffffffffffffffffffffffffffffffffffff168373ffffffffffffffffffffffffffffffffffffffff1614158015611bcd57508273ffffffffffffffffffffffffffffffffffffffff168173ffffffffffffffffffffffffffffffffffffffff1614155b8015611be05750611bde8184610f0a565b155b15611c2257826040517fa9fbf51f000000000000000000000000000000000000000000000000000000008152600401611c199190612438565b60405180910390fd5b8115611c8457838573ffffffffffffffffffffffffffffffffffffffff168273ffffffffffffffffffffffffffffffffffffffff167f8c5be1e5ebec7d5bd14f71427d1e84f3dd0314c0f7b2291e5b200ac8c7c3b92560405160405180910390a45b505b836004600085815260200190815260200160002060006101000a81548173ffffffffffffffffffffffffffffffffffffffff021916908373ffffffffffffffffffffffffffffffffffffffff16021790555050505050565b611cf8828260405180602001604052806000815250611eea565b5050565b80600660008481526020019081526020016000209081611d1c9190612f22565b507ff8e1a15aba9398e019f0b49df1a4fde98ee17ae345cb5f6b5e2c27f5033e8ce782604051611d4c91906124ce565b60405180910390a15050565b611d63838383611f06565b611e1757600073ffffffffffffffffffffffffffffffffffffffff168373ffffffffffffffffffffffffffffffffffffffff1603611dd857806040517f7e273289000000000000000000000000000000000000000000000000000000008152600401611dcf91906124ce565b60405180910390fd5b81816040517f177e802f000000000000000000000000000000000000000000000000000000008152600401611e0e929190612ff4565b60405180910390fd5b505050565b606060006001611e2b84611fc7565b01905060008167ffffffffffffffff811115611e4a57611e496124ee565b5b6040519080825280601f01601f191660200182016040528015611e7c5781602001600182028036833780820191505090505b509050600082602001820190505b600115611edf578080600190039150507f3031323334353637383961626364656600000000000000000000000000000000600a86061a8153600a8581611ed357611ed2612bbc565b5b04945060008503611e8a575b819350505050919050565b611ef4838361211a565b611f01600084848461183b565b505050565b60008073ffffffffffffffffffffffffffffffffffffffff168373ffffffffffffffffffffffffffffffffffffffff1614158015611fbe57508273ffffffffffffffffffffffffffffffffffffffff168473ffffffffffffffffffffffffffffffffffffffff161480611f7f5750611f7e8484610f0a565b5b80611fbd57508273ffffffffffffffffffffffffffffffffffffffff16611fa58361118e565b73ffffffffffffffffffffffffffffffffffffffff16145b5b90509392505050565b600080600090507a184f03e93ff9f4daa797ed6e38ed64bf6a1f0100000000000000008310612025577a184f03e93ff9f4daa797ed6e38ed64bf6a1f010000000000000000838161201b5761201a612bbc565b5b0492506040810190505b6d04ee2d6d415b85acef81000000008310612062576d04ee2d6d415b85acef8100000000838161205857612057612bbc565b5b0492506020810190505b662386f26fc10000831061209157662386f26fc10000838161208757612086612bbc565b5b0492506010810190505b6305f5e10083106120ba576305f5e10083816120b0576120af612bbc565b5b0492506008810190505b61271083106120df5761271083816120d5576120d4612bbc565b5b0492506004810190505b6064831061210257606483816120f8576120f7612bbc565b5b0492506002810190505b600a8310612111576001810190505b80915050919050565b600073ffffffffffffffffffffffffffffffffffffffff168273ffffffffffffffffffffffffffffffffffffffff160361218c5760006040517f64a0ae920000000000000000000000000000000000000000000000000000000081526004016121839190612438565b60405180910390fd5b600061219a83836000611365565b9050600073ffffffffffffffffffffffffffffffffffffffff168173ffffffffffffffffffffffffffffffffffffffff161461220e5760006040517f73c6ac6e0000000000000000000000000000000000000000000000000000000081526004016122059190612438565b60405180910390fd5b505050565b6000604051905090565b600080fd5b600080fd5b60007fffffffff0000000000000000000000000000000000000000000000000000000082169050919050565b61225c81612227565b811461226757600080fd5b50565b60008135905061227981612253565b92915050565b6000602082840312156122955761229461221d565b5b60006122a38482850161226a565b91505092915050565b60008115159050919050565b6122c1816122ac565b82525050565b60006020820190506122dc60008301846122b8565b92915050565b600081519050919050565b600082825260208201905092915050565b60005b8381101561231c578082015181840152602081019050612301565b60008484015250505050565b6000601f19601f8301169050919050565b6000612344826122e2565b61234e81856122ed565b935061235e8185602086016122fe565b61236781612328565b840191505092915050565b6000602082019050818103600083015261238c8184612339565b905092915050565b6000819050919050565b6123a781612394565b81146123b257600080fd5b50565b6000813590506123c48161239e565b92915050565b6000602082840312156123e0576123df61221d565b5b60006123ee848285016123b5565b91505092915050565b600073ffffffffffffffffffffffffffffffffffffffff82169050919050565b6000612422826123f7565b9050919050565b61243281612417565b82525050565b600060208201905061244d6000830184612429565b92915050565b61245c81612417565b811461246757600080fd5b50565b60008135905061247981612453565b92915050565b600080604083850312156124965761249561221d565b5b60006124a48582860161246a565b92505060206124b5858286016123b5565b9150509250929050565b6124c881612394565b82525050565b60006020820190506124e360008301846124bf565b92915050565b600080fd5b7f4e487b7100000000000000000000000000000000000000000000000000000000600052604160045260246000fd5b61252682612328565b810181811067ffffffffffffffff82111715612545576125446124ee565b5b80604052505050565b6000612558612213565b9050612564828261251d565b919050565b600067ffffffffffffffff821115612584576125836124ee565b5b602082029050602081019050919050565b600080fd5b60006125ad6125a884612569565b61254e565b905080838252602082019050602084028301858111156125d0576125cf612595565b5b835b818110156125f957806125e588826123b5565b8452602084019350506020810190506125d2565b5050509392505050565b600082601f830112612618576126176124e9565b5b813561262884826020860161259a565b91505092915050565b600080604083850312156126485761264761221d565b5b6000612656858286016123b5565b925050602083013567ffffffffffffffff81111561267757612676612222565b5b61268385828601612603565b9150509250929050565b6000806000606084860312156126a6576126a561221d565b5b60006126b48682870161246a565b93505060206126c58682870161246a565b92505060406126d6868287016123b5565b9150509250925092565b6000602082840312156126f6576126f561221d565b5b60006127048482850161246a565b91505092915050565b612716816122ac565b811461272157600080fd5b50565b6000813590506127338161270d565b92915050565b600080604083850312156127505761274f61221d565b5b600061275e8582860161246a565b925050602061276f85828601612724565b9150509250929050565b600080fd5b600067ffffffffffffffff821115612799576127986124ee565b5b6127a282612328565b9050602081019050919050565b82818337600083830152505050565b60006127d16127cc8461277e565b61254e565b9050828152602081018484840111156127ed576127ec612779565b5b6127f88482856127af565b509392505050565b600082601f830112612815576128146124e9565b5b81356128258482602086016127be565b91505092915050565b600080600080608085870312156128485761284761221d565b5b60006128568782880161246a565b94505060206128678782880161246a565b9350506040612878878288016123b5565b925050606085013567ffffffffffffffff81111561289957612898612222565b5b6128a587828801612800565b91505092959194509250565b600080604083850312156128c8576128c761221d565b5b60006128d68582860161246a565b92505060206128e78582860161246a565b9150509250929050565b7f4e487b7100000000000000000000000000000000000000000000000000000000600052602260045260246000fd5b6000600282049050600182168061293857607f821691505b60208210810361294b5761294a6128f1565b5b50919050565b60006040820190506129666000830185612429565b6129736020830184612429565b9392505050565b600060608201905061298f6000830186612429565b61299c60208301856124bf565b6129a96040830184612429565b949350505050565b600081905092915050565b50565b60006129cc6000836129b1565b91506129d7826129bc565b600082019050919050565b60006129ed826129bf565b9150819050919050565b7f4e487b7100000000000000000000000000000000000000000000000000000000600052603260045260246000fd5b6000819050919050565b612a3981612a26565b82525050565b600067ffffffffffffffff82169050919050565b612a5c81612a3f565b82525050565b600061ffff82169050919050565b612a7981612a62565b82525050565b600063ffffffff82169050919050565b612a9881612a7f565b82525050565b600060a082019050612ab36000830188612a30565b612ac06020830187612a53565b612acd6040830186612a70565b612ada6060830185612a8f565b612ae76080830184612a8f565b9695505050505050565b600081519050612b008161239e565b92915050565b600060208284031215612b1c57612b1b61221d565b5b6000612b2a84828501612af1565b91505092915050565b6000604082019050612b4860008301856124bf565b612b556020830184612429565b9392505050565b600081905092915050565b6000612b72826122e2565b612b7c8185612b5c565b9350612b8c8185602086016122fe565b80840191505092915050565b6000612ba48285612b67565b9150612bb08284612b67565b91508190509392505050565b7f4e487b7100000000000000000000000000000000000000000000000000000000600052601260045260246000fd5b6000612bf682612394565b9150612c0183612394565b925082612c1157612c10612bbc565b5b828206905092915050565b7f4e487b7100000000000000000000000000000000000000000000000000000000600052601160045260246000fd5b6000612c5682612394565b91507fffffffffffffffffffffffffffffffffffffffffffffffffffffffffffffffff8203612c8857612c87612c1c565b5b600182019050919050565b600081519050919050565b600082825260208201905092915050565b6000612cba82612c93565b612cc48185612c9e565b9350612cd48185602086016122fe565b612cdd81612328565b840191505092915050565b6000608082019050612cfd6000830187612429565b612d0a6020830186612429565b612d1760408301856124bf565b8181036060830152612d298184612caf565b905095945050505050565b600081519050612d4381612253565b92915050565b600060208284031215612d5f57612d5e61221d565b5b6000612d6d84828501612d34565b91505092915050565b60008190508160005260206000209050919050565b60006020601f8301049050919050565b600082821b905092915050565b600060088302612dd87fffffffffffffffffffffffffffffffffffffffffffffffffffffffffffffffff82612d9b565b612de28683612d9b565b95508019841693508086168417925050509392505050565b6000819050919050565b6000612e1f612e1a612e1584612394565b612dfa565b612394565b9050919050565b6000819050919050565b612e3983612e04565b612e4d612e4582612e26565b848454612da8565b825550505050565b600090565b612e62612e55565b612e6d818484612e30565b505050565b5b81811015612e9157612e86600082612e5a565b600181019050612e73565b5050565b601f821115612ed657612ea781612d76565b612eb084612d8b565b81016020851015612ebf578190505b612ed3612ecb85612d8b565b830182612e72565b50505b505050565b600082821c905092915050565b6000612ef960001984600802612edb565b1980831691505092915050565b6000612f128383612ee8565b9150826002028217905092915050565b612f2b826122e2565b67ffffffffffffffff811115612f4457612f436124ee565b5b612f4e8254612920565b612f59828285612e95565b600060209050601f831160018114612f8c5760008415612f7a578287015190505b612f848582612f06565b865550612fec565b601f198416612f9a86612d76565b60005b82811015612fc257848901518255600182019150602085019450602081019050612f9d565b86831015612fdf5784890151612fdb601f891682612ee8565b8355505b6001600288020188555050505b505050505050565b60006040820190506130096000830185612429565b61301660208301846124bf565b939250505056fea26469706673582212208338b13cd8099e979412aeda731d6260d3143fadfc15da7abb826706453d031364736f6c63430008140033",
  "linkReferences": {},
  "deployedLinkReferences": {}
}